{
  "_format": "hh-sol-artifact-1",
  "contractName": "TicketNFT",
  "sourceName": "contracts/TicketNFT.sol",
  "abi": [
    {
      "inputs": [],
      "stateMutability": "nonpayable",
      "type": "constructor"
    },
    {
      "inputs": [
        {
          "internalType": "address",
          "name": "sender",
          "type": "address"
        },
        {
          "internalType": "uint256",
          "name": "tokenId",
          "type": "uint256"
        },
        {
          "internalType": "address",
          "name": "owner",
          "type": "address"
        }
      ],
      "name": "ERC721IncorrectOwner",
      "type": "error"
    },
    {
      "inputs": [
        {
          "internalType": "address",
          "name": "operator",
          "type": "address"
        },
        {
          "internalType": "uint256",
          "name": "tokenId",
          "type": "uint256"
        }
      ],
      "name": "ERC721InsufficientApproval",
      "type": "error"
    },
    {
      "inputs": [
        {
          "internalType": "address",
          "name": "approver",
          "type": "address"
        }
      ],
      "name": "ERC721InvalidApprover",
      "type": "error"
    },
    {
      "inputs": [
        {
          "internalType": "address",
          "name": "operator",
          "type": "address"
        }
      ],
      "name": "ERC721InvalidOperator",
      "type": "error"
    },
    {
      "inputs": [
        {
          "internalType": "address",
          "name": "owner",
          "type": "address"
        }
      ],
      "name": "ERC721InvalidOwner",
      "type": "error"
    },
    {
      "inputs": [
        {
          "internalType": "address",
          "name": "receiver",
          "type": "address"
        }
      ],
      "name": "ERC721InvalidReceiver",
      "type": "error"
    },
    {
      "inputs": [
        {
          "internalType": "address",
          "name": "sender",
          "type": "address"
        }
      ],
      "name": "ERC721InvalidSender",
      "type": "error"
    },
    {
      "inputs": [
        {
          "internalType": "uint256",
          "name": "tokenId",
          "type": "uint256"
        }
      ],
      "name": "ERC721NonexistentToken",
      "type": "error"
    },
    {
      "inputs": [
        {
          "internalType": "address",
          "name": "owner",
          "type": "address"
        }
      ],
      "name": "OwnableInvalidOwner",
      "type": "error"
    },
    {
      "inputs": [
        {
          "internalType": "address",
          "name": "account",
          "type": "address"
        }
      ],
      "name": "OwnableUnauthorizedAccount",
      "type": "error"
    },
    {
      "anonymous": false,
      "inputs": [
        {
          "indexed": true,
          "internalType": "address",
          "name": "owner",
          "type": "address"
        },
        {
          "indexed": true,
          "internalType": "address",
          "name": "approved",
          "type": "address"
        },
        {
          "indexed": true,
          "internalType": "uint256",
          "name": "tokenId",
          "type": "uint256"
        }
      ],
      "name": "Approval",
      "type": "event"
    },
    {
      "anonymous": false,
      "inputs": [
        {
          "indexed": true,
          "internalType": "address",
          "name": "owner",
          "type": "address"
        },
        {
          "indexed": true,
          "internalType": "address",
          "name": "operator",
          "type": "address"
        },
        {
          "indexed": false,
          "internalType": "bool",
          "name": "approved",
          "type": "bool"
        }
      ],
      "name": "ApprovalForAll",
      "type": "event"
    },
    {
      "anonymous": false,
      "inputs": [
        {
          "indexed": false,
          "internalType": "uint256",
          "name": "_fromTokenId",
          "type": "uint256"
        },
        {
          "indexed": false,
          "internalType": "uint256",
          "name": "_toTokenId",
          "type": "uint256"
        }
      ],
      "name": "BatchMetadataUpdate",
      "type": "event"
    },
    {
      "anonymous": false,
      "inputs": [
        {
          "indexed": false,
          "internalType": "uint256",
          "name": "_tokenId",
          "type": "uint256"
        }
      ],
      "name": "MetadataUpdate",
      "type": "event"
    },
    {
      "anonymous": false,
      "inputs": [
        {
          "indexed": true,
          "internalType": "address",
          "name": "previousOwner",
          "type": "address"
        },
        {
          "indexed": true,
          "internalType": "address",
          "name": "newOwner",
          "type": "address"
        }
      ],
      "name": "OwnershipTransferred",
      "type": "event"
    },
    {
      "anonymous": false,
      "inputs": [
        {
          "indexed": true,
          "internalType": "address",
          "name": "buyer",
          "type": "address"
        },
        {
          "indexed": false,
          "internalType": "uint256",
          "name": "amount",
          "type": "uint256"
        },
        {
          "indexed": false,
          "internalType": "string",
          "name": "transactionHash",
          "type": "string"
        }
      ],
      "name": "TicketPurchased",
      "type": "event"
    },
    {
      "anonymous": false,
      "inputs": [
        {
          "indexed": true,
          "internalType": "address",
          "name": "from",
          "type": "address"
        },
        {
          "indexed": true,
          "internalType": "address",
          "name": "to",
          "type": "address"
        },
        {
          "indexed": true,
          "internalType": "uint256",
          "name": "tokenId",
          "type": "uint256"
        }
      ],
      "name": "Transfer",
      "type": "event"
    },
    {
      "inputs": [
        {
          "internalType": "address",
          "name": "to",
          "type": "address"
        },
        {
          "internalType": "uint256",
          "name": "tokenId",
          "type": "uint256"
        }
      ],
      "name": "approve",
      "outputs": [],
      "stateMutability": "nonpayable",
      "type": "function"
    },
    {
      "inputs": [
        {
          "internalType": "address",
          "name": "owner",
          "type": "address"
        }
      ],
      "name": "balanceOf",
      "outputs": [
        {
          "internalType": "uint256",
          "name": "",
          "type": "uint256"
        }
      ],
      "stateMutability": "view",
      "type": "function"
    },
    {
      "inputs": [],
      "name": "buyTicket",
      "outputs": [],
      "stateMutability": "payable",
      "type": "function"
    },
    {
      "inputs": [
        {
          "internalType": "uint256",
          "name": "tokenId",
          "type": "uint256"
        }
      ],
      "name": "getApproved",
      "outputs": [
        {
          "internalType": "address",
          "name": "",
          "type": "address"
        }
      ],
      "stateMutability": "view",
      "type": "function"
    },
    {
      "inputs": [
        {
          "internalType": "address",
          "name": "owner",
          "type": "address"
        },
        {
          "internalType": "address",
          "name": "operator",
          "type": "address"
        }
      ],
      "name": "isApprovedForAll",
      "outputs": [
        {
          "internalType": "bool",
          "name": "",
          "type": "bool"
        }
      ],
      "stateMutability": "view",
      "type": "function"
    },
    {
      "inputs": [
        {
          "internalType": "address",
          "name": "to",
          "type": "address"
        },
        {
          "internalType": "string",
          "name": "tokenURI",
          "type": "string"
        }
      ],
      "name": "mintTicket",
      "outputs": [
        {
          "internalType": "uint256",
          "name": "",
          "type": "uint256"
        }
      ],
      "stateMutability": "nonpayable",
      "type": "function"
    },
    {
      "inputs": [],
      "name": "name",
      "outputs": [
        {
          "internalType": "string",
          "name": "",
          "type": "string"
        }
      ],
      "stateMutability": "view",
      "type": "function"
    },
    {
      "inputs": [],
      "name": "owner",
      "outputs": [
        {
          "internalType": "address",
          "name": "",
          "type": "address"
        }
      ],
      "stateMutability": "view",
      "type": "function"
    },
    {
      "inputs": [
        {
          "internalType": "uint256",
          "name": "tokenId",
          "type": "uint256"
        }
      ],
      "name": "ownerOf",
      "outputs": [
        {
          "internalType": "address",
          "name": "",
          "type": "address"
        }
      ],
      "stateMutability": "view",
      "type": "function"
    },
    {
      "inputs": [],
      "name": "renounceOwnership",
      "outputs": [],
      "stateMutability": "nonpayable",
      "type": "function"
    },
    {
      "inputs": [
        {
          "internalType": "address",
          "name": "from",
          "type": "address"
        },
        {
          "internalType": "address",
          "name": "to",
          "type": "address"
        },
        {
          "internalType": "uint256",
          "name": "tokenId",
          "type": "uint256"
        }
      ],
      "name": "safeTransferFrom",
      "outputs": [],
      "stateMutability": "nonpayable",
      "type": "function"
    },
    {
      "inputs": [
        {
          "internalType": "address",
          "name": "from",
          "type": "address"
        },
        {
          "internalType": "address",
          "name": "to",
          "type": "address"
        },
        {
          "internalType": "uint256",
          "name": "tokenId",
          "type": "uint256"
        },
        {
          "internalType": "bytes",
          "name": "data",
          "type": "bytes"
        }
      ],
      "name": "safeTransferFrom",
      "outputs": [],
      "stateMutability": "nonpayable",
      "type": "function"
    },
    {
      "inputs": [
        {
          "internalType": "address",
          "name": "operator",
          "type": "address"
        },
        {
          "internalType": "bool",
          "name": "approved",
          "type": "bool"
        }
      ],
      "name": "setApprovalForAll",
      "outputs": [],
      "stateMutability": "nonpayable",
      "type": "function"
    },
    {
      "inputs": [
        {
          "internalType": "bytes4",
          "name": "interfaceId",
          "type": "bytes4"
        }
      ],
      "name": "supportsInterface",
      "outputs": [
        {
          "internalType": "bool",
          "name": "",
          "type": "bool"
        }
      ],
      "stateMutability": "view",
      "type": "function"
    },
    {
      "inputs": [],
      "name": "symbol",
      "outputs": [
        {
          "internalType": "string",
          "name": "",
          "type": "string"
        }
      ],
      "stateMutability": "view",
      "type": "function"
    },
    {
      "inputs": [
        {
          "internalType": "uint256",
          "name": "tokenId",
          "type": "uint256"
        }
      ],
      "name": "tokenURI",
      "outputs": [
        {
          "internalType": "string",
          "name": "",
          "type": "string"
        }
      ],
      "stateMutability": "view",
      "type": "function"
    },
    {
      "inputs": [
        {
          "internalType": "address",
          "name": "from",
          "type": "address"
        },
        {
          "internalType": "address",
          "name": "to",
          "type": "address"
        },
        {
          "internalType": "uint256",
          "name": "tokenId",
          "type": "uint256"
        }
      ],
      "name": "transferFrom",
      "outputs": [],
      "stateMutability": "nonpayable",
      "type": "function"
    },
    {
      "inputs": [
        {
          "internalType": "address",
          "name": "newOwner",
          "type": "address"
        }
      ],
      "name": "transferOwnership",
      "outputs": [],
      "stateMutability": "nonpayable",
      "type": "function"
    }
  ],
  "bytecode": "0x60806040523480156200001157600080fd5b50336040518060400160405280600981526020017f5469636b65744e465400000000000000000000000000000000000000000000008152506040518060400160405280600381526020017f544b54000000000000000000000000000000000000000000000000000000000081525081600090816200009091906200047a565b508060019081620000a291906200047a565b505050600073ffffffffffffffffffffffffffffffffffffffff168173ffffffffffffffffffffffffffffffffffffffff16036200011a5760006040517f1e4fbdf7000000000000000000000000000000000000000000000000000000008152600401620001119190620005a6565b60405180910390fd5b6200012b816200013a60201b60201c565b506001600881905550620005c3565b6000600760009054906101000a900473ffffffffffffffffffffffffffffffffffffffff16905081600760006101000a81548173ffffffffffffffffffffffffffffffffffffffff021916908373ffffffffffffffffffffffffffffffffffffffff1602179055508173ffffffffffffffffffffffffffffffffffffffff168173ffffffffffffffffffffffffffffffffffffffff167f8be0079c531659141344cd1fd0a4f28419497f9722a3daafe3b4186f6b6457e060405160405180910390a35050565b600081519050919050565b7f4e487b7100000000000000000000000000000000000000000000000000000000600052604160045260246000fd5b7f4e487b7100000000000000000000000000000000000000000000000000000000600052602260045260246000fd5b600060028204905060018216806200028257607f821691505b6020821081036200029857620002976200023a565b5b50919050565b60008190508160005260206000209050919050565b60006020601f8301049050919050565b600082821b905092915050565b600060088302620003027fffffffffffffffffffffffffffffffffffffffffffffffffffffffffffffffff82620002c3565b6200030e8683620002c3565b95508019841693508086168417925050509392505050565b6000819050919050565b6000819050919050565b60006200035b620003556200034f8462000326565b62000330565b62000326565b9050919050565b6000819050919050565b62000377836200033a565b6200038f620003868262000362565b848454620002d0565b825550505050565b600090565b620003a662000397565b620003b38184846200036c565b505050565b5b81811015620003db57620003cf6000826200039c565b600181019050620003b9565b5050565b601f8211156200042a57620003f4816200029e565b620003ff84620002b3565b810160208510156200040f578190505b620004276200041e85620002b3565b830182620003b8565b50505b505050565b600082821c905092915050565b60006200044f600019846008026200042f565b1980831691505092915050565b60006200046a83836200043c565b9150826002028217905092915050565b620004858262000200565b67ffffffffffffffff811115620004a157620004a06200020b565b5b620004ad825462000269565b620004ba828285620003df565b600060209050601f831160018114620004f25760008415620004dd578287015190505b620004e985826200045c565b86555062000559565b601f19841662000502866200029e565b60005b828110156200052c5784890151825560018201915060208501945060208101905062000505565b868310156200054c578489015162000548601f8916826200043c565b8355505b6001600288020188555050505b505050505050565b600073ffffffffffffffffffffffffffffffffffffffff82169050919050565b60006200058e8262000561565b9050919050565b620005a08162000581565b82525050565b6000602082019050620005bd600083018462000595565b92915050565b61295580620005d36000396000f3fe6080604052600436106101095760003560e01c8063715018a611610095578063b88d4fde11610064578063b88d4fde1461037b578063c87b56dd146103a4578063e985e9c5146103e1578063edca914c1461041e578063f2fde38b1461042857610109565b8063715018a6146102e55780638da5cb5b146102fc57806395d89b4114610327578063a22cb4651461035257610109565b806323b872dd116100dc57806323b872dd146101dc57806342842e0e146102055780635388842c1461022e5780636352211e1461026b57806370a08231146102a857610109565b806301ffc9a71461010e57806306fdde031461014b578063081812fc14610176578063095ea7b3146101b3575b600080fd5b34801561011a57600080fd5b5061013560048036038101906101309190611ca1565b610451565b6040516101429190611ce9565b60405180910390f35b34801561015757600080fd5b506101606104b2565b60405161016d9190611d94565b60405180910390f35b34801561018257600080fd5b5061019d60048036038101906101989190611dec565b610544565b6040516101aa9190611e5a565b60405180910390f35b3480156101bf57600080fd5b506101da60048036038101906101d59190611ea1565b610560565b005b3480156101e857600080fd5b5061020360048036038101906101fe9190611ee1565b610576565b005b34801561021157600080fd5b5061022c60048036038101906102279190611ee1565b610678565b005b34801561023a57600080fd5b5061025560048036038101906102509190612069565b610698565b60405161026291906120d4565b60405180910390f35b34801561027757600080fd5b50610292600480360381019061028d9190611dec565b6106df565b60405161029f9190611e5a565b60405180910390f35b3480156102b457600080fd5b506102cf60048036038101906102ca91906120ef565b6106f1565b6040516102dc91906120d4565b60405180910390f35b3480156102f157600080fd5b506102fa6107ab565b005b34801561030857600080fd5b506103116107bf565b60405161031e9190611e5a565b60405180910390f35b34801561033357600080fd5b5061033c6107e9565b6040516103499190611d94565b60405180910390f35b34801561035e57600080fd5b5061037960048036038101906103749190612148565b61087b565b005b34801561038757600080fd5b506103a2600480360381019061039d9190612229565b610891565b005b3480156103b057600080fd5b506103cb60048036038101906103c69190611dec565b6108b6565b6040516103d89190611d94565b60405180910390f35b3480156103ed57600080fd5b50610408600480360381019061040391906122ac565b6109c9565b6040516104159190611ce9565b60405180910390f35b610426610a5d565b005b34801561043457600080fd5b5061044f600480360381019061044a91906120ef565b610b3e565b005b6000634906490660e01b7bffffffffffffffffffffffffffffffffffffffffffffffffffffffff1916827bffffffffffffffffffffffffffffffffffffffffffffffffffffffff191614806104ab57506104aa82610bc4565b5b9050919050565b6060600080546104c19061231b565b80601f01602080910402602001604051908101604052809291908181526020018280546104ed9061231b565b801561053a5780601f1061050f5761010080835404028352916020019161053a565b820191906000526020600020905b81548152906001019060200180831161051d57829003601f168201915b5050505050905090565b600061054f82610ca6565b5061055982610d2e565b9050919050565b610572828261056d610d6b565b610d73565b5050565b600073ffffffffffffffffffffffffffffffffffffffff168273ffffffffffffffffffffffffffffffffffffffff16036105e85760006040517f64a0ae920000000000000000000000000000000000000000000000000000000081526004016105df9190611e5a565b60405180910390fd5b60006105fc83836105f7610d6b565b610d85565b90508373ffffffffffffffffffffffffffffffffffffffff168173ffffffffffffffffffffffffffffffffffffffff1614610672578382826040517f64283d7b0000000000000000000000000000000000000000000000000000000081526004016106699392919061234c565b60405180910390fd5b50505050565b61069383838360405180602001604052806000815250610891565b505050565b60006106a2610f9f565b60006008549050600860008154809291906106bc906123b2565b91905055506106cb8482611026565b6106d58184611044565b8091505092915050565b60006106ea82610ca6565b9050919050565b60008073ffffffffffffffffffffffffffffffffffffffff168273ffffffffffffffffffffffffffffffffffffffff16036107645760006040517f89c62b6400000000000000000000000000000000000000000000000000000000815260040161075b9190611e5a565b60405180910390fd5b600360008373ffffffffffffffffffffffffffffffffffffffff1673ffffffffffffffffffffffffffffffffffffffff168152602001908152602001600020549050919050565b6107b3610f9f565b6107bd60006110a0565b565b6000600760009054906101000a900473ffffffffffffffffffffffffffffffffffffffff16905090565b6060600180546107f89061231b565b80601f01602080910402602001604051908101604052809291908181526020018280546108249061231b565b80156108715780601f1061084657610100808354040283529160200191610871565b820191906000526020600020905b81548152906001019060200180831161085457829003601f168201915b5050505050905090565b61088d610886610d6b565b8383611166565b5050565b61089c848484610576565b6108b06108a7610d6b565b858585856112d5565b50505050565b60606108c182610ca6565b5060006006600084815260200190815260200160002080546108e29061231b565b80601f016020809104026020016040519081016040528092919081815260200182805461090e9061231b565b801561095b5780601f106109305761010080835404028352916020019161095b565b820191906000526020600020905b81548152906001019060200180831161093e57829003601f168201915b50505050509050600061096c611486565b905060008151036109815781925050506109c4565b6000825111156109b657808260405160200161099e929190612436565b604051602081830303815290604052925050506109c4565b6109bf8461149d565b925050505b919050565b6000600560008473ffffffffffffffffffffffffffffffffffffffff1673ffffffffffffffffffffffffffffffffffffffff16815260200190815260200160002060008373ffffffffffffffffffffffffffffffffffffffff1673ffffffffffffffffffffffffffffffffffffffff16815260200190815260200160002060009054906101000a900460ff16905092915050565b60003411610aa0576040517f08c379a0000000000000000000000000000000000000000000000000000000008152600401610a97906124a6565b60405180910390fd5b610aa86107bf565b73ffffffffffffffffffffffffffffffffffffffff166108fc349081150290604051600060405180830381858888f19350505050158015610aed573d6000803e3d6000fd5b503373ffffffffffffffffffffffffffffffffffffffff167ff42bcb446ef77d1e26a674d8e09b83475b3f865cddfc5425da974f3edab3342434604051610b349190612538565b60405180910390a2565b610b46610f9f565b600073ffffffffffffffffffffffffffffffffffffffff168173ffffffffffffffffffffffffffffffffffffffff1603610bb85760006040517f1e4fbdf7000000000000000000000000000000000000000000000000000000008152600401610baf9190611e5a565b60405180910390fd5b610bc1816110a0565b50565b60007f80ac58cd000000000000000000000000000000000000000000000000000000007bffffffffffffffffffffffffffffffffffffffffffffffffffffffff1916827bffffffffffffffffffffffffffffffffffffffffffffffffffffffff19161480610c8f57507f5b5e139f000000000000000000000000000000000000000000000000000000007bffffffffffffffffffffffffffffffffffffffffffffffffffffffff1916827bffffffffffffffffffffffffffffffffffffffffffffffffffffffff1916145b80610c9f5750610c9e82611506565b5b9050919050565b600080610cb283611570565b9050600073ffffffffffffffffffffffffffffffffffffffff168173ffffffffffffffffffffffffffffffffffffffff1603610d2557826040517f7e273289000000000000000000000000000000000000000000000000000000008152600401610d1c91906120d4565b60405180910390fd5b80915050919050565b60006004600083815260200190815260200160002060009054906101000a900473ffffffffffffffffffffffffffffffffffffffff169050919050565b600033905090565b610d8083838360016115ad565b505050565b600080610d9184611570565b9050600073ffffffffffffffffffffffffffffffffffffffff168373ffffffffffffffffffffffffffffffffffffffff1614610dd357610dd2818486611772565b5b600073ffffffffffffffffffffffffffffffffffffffff168173ffffffffffffffffffffffffffffffffffffffff1614610e6457610e156000856000806115ad565b6001600360008373ffffffffffffffffffffffffffffffffffffffff1673ffffffffffffffffffffffffffffffffffffffff168152602001908152602001600020600082825403925050819055505b600073ffffffffffffffffffffffffffffffffffffffff168573ffffffffffffffffffffffffffffffffffffffff1614610ee7576001600360008773ffffffffffffffffffffffffffffffffffffffff1673ffffffffffffffffffffffffffffffffffffffff168152602001908152602001600020600082825401925050819055505b846002600086815260200190815260200160002060006101000a81548173ffffffffffffffffffffffffffffffffffffffff021916908373ffffffffffffffffffffffffffffffffffffffff160217905550838573ffffffffffffffffffffffffffffffffffffffff168273ffffffffffffffffffffffffffffffffffffffff167fddf252ad1be2c89b69c2b068fc378daa952ba7f163c4a11628f55a4df523b3ef60405160405180910390a4809150509392505050565b610fa7610d6b565b73ffffffffffffffffffffffffffffffffffffffff16610fc56107bf565b73ffffffffffffffffffffffffffffffffffffffff161461102457610fe8610d6b565b6040517f118cdaa700000000000000000000000000000000000000000000000000000000815260040161101b9190611e5a565b60405180910390fd5b565b611040828260405180602001604052806000815250611836565b5050565b806006600084815260200190815260200160002090816110649190612712565b507ff8e1a15aba9398e019f0b49df1a4fde98ee17ae345cb5f6b5e2c27f5033e8ce78260405161109491906120d4565b60405180910390a15050565b6000600760009054906101000a900473ffffffffffffffffffffffffffffffffffffffff16905081600760006101000a81548173ffffffffffffffffffffffffffffffffffffffff021916908373ffffffffffffffffffffffffffffffffffffffff1602179055508173ffffffffffffffffffffffffffffffffffffffff168173ffffffffffffffffffffffffffffffffffffffff167f8be0079c531659141344cd1fd0a4f28419497f9722a3daafe3b4186f6b6457e060405160405180910390a35050565b600073ffffffffffffffffffffffffffffffffffffffff168273ffffffffffffffffffffffffffffffffffffffff16036111d757816040517f5b08ba180000000000000000000000000000000000000000000000000000000081526004016111ce9190611e5a565b60405180910390fd5b80600560008573ffffffffffffffffffffffffffffffffffffffff1673ffffffffffffffffffffffffffffffffffffffff16815260200190815260200160002060008473ffffffffffffffffffffffffffffffffffffffff1673ffffffffffffffffffffffffffffffffffffffff16815260200190815260200160002060006101000a81548160ff0219169083151502179055508173ffffffffffffffffffffffffffffffffffffffff168373ffffffffffffffffffffffffffffffffffffffff167f17307eab39ab6107e8899845ad3d59bd9653f200f220920489ca2b5937696c31836040516112c89190611ce9565b60405180910390a3505050565b60008373ffffffffffffffffffffffffffffffffffffffff163b111561147f578273ffffffffffffffffffffffffffffffffffffffff1663150b7a02868685856040518563ffffffff1660e01b81526004016113349493929190612839565b6020604051808303816000875af192505050801561137057506040513d601f19601f8201168201806040525081019061136d919061289a565b60015b6113f4573d80600081146113a0576040519150601f19603f3d011682016040523d82523d6000602084013e6113a5565b606091505b5060008151036113ec57836040517f64a0ae920000000000000000000000000000000000000000000000000000000081526004016113e39190611e5a565b60405180910390fd5b805181602001fd5b63150b7a0260e01b7bffffffffffffffffffffffffffffffffffffffffffffffffffffffff1916817bffffffffffffffffffffffffffffffffffffffffffffffffffffffff19161461147d57836040517f64a0ae920000000000000000000000000000000000000000000000000000000081526004016114749190611e5a565b60405180910390fd5b505b5050505050565b606060405180602001604052806000815250905090565b60606114a882610ca6565b5060006114b3611486565b905060008151116114d357604051806020016040528060008152506114fe565b806114dd8461185a565b6040516020016114ee929190612436565b6040516020818303038152906040525b915050919050565b60007f01ffc9a7000000000000000000000000000000000000000000000000000000007bffffffffffffffffffffffffffffffffffffffffffffffffffffffff1916827bffffffffffffffffffffffffffffffffffffffffffffffffffffffff1916149050919050565b60006002600083815260200190815260200160002060009054906101000a900473ffffffffffffffffffffffffffffffffffffffff169050919050565b80806115e65750600073ffffffffffffffffffffffffffffffffffffffff168273ffffffffffffffffffffffffffffffffffffffff1614155b1561171a5760006115f684610ca6565b9050600073ffffffffffffffffffffffffffffffffffffffff168373ffffffffffffffffffffffffffffffffffffffff161415801561166157508273ffffffffffffffffffffffffffffffffffffffff168173ffffffffffffffffffffffffffffffffffffffff1614155b8015611674575061167281846109c9565b155b156116b657826040517fa9fbf51f0000000000000000000000000000000000000000000000000000000081526004016116ad9190611e5a565b60405180910390fd5b811561171857838573ffffffffffffffffffffffffffffffffffffffff168273ffffffffffffffffffffffffffffffffffffffff167f8c5be1e5ebec7d5bd14f71427d1e84f3dd0314c0f7b2291e5b200ac8c7c3b92560405160405180910390a45b505b836004600085815260200190815260200160002060006101000a81548173ffffffffffffffffffffffffffffffffffffffff021916908373ffffffffffffffffffffffffffffffffffffffff16021790555050505050565b61177d838383611928565b61183157600073ffffffffffffffffffffffffffffffffffffffff168373ffffffffffffffffffffffffffffffffffffffff16036117f257806040517f7e2732890000000000000000000000000000000000000000000000000000000081526004016117e991906120d4565b60405180910390fd5b81816040517f177e802f0000000000000000000000000000000000000000000000000000000081526004016118289291906128c7565b60405180910390fd5b505050565b61184083836119e9565b61185561184b610d6b565b60008585856112d5565b505050565b60606000600161186984611ae2565b01905060008167ffffffffffffffff81111561188857611887611f3e565b5b6040519080825280601f01601f1916602001820160405280156118ba5781602001600182028036833780820191505090505b509050600082602001820190505b60011561191d578080600190039150507f3031323334353637383961626364656600000000000000000000000000000000600a86061a8153600a8581611911576119106128f0565b5b049450600085036118c8575b819350505050919050565b60008073ffffffffffffffffffffffffffffffffffffffff168373ffffffffffffffffffffffffffffffffffffffff16141580156119e057508273ffffffffffffffffffffffffffffffffffffffff168473ffffffffffffffffffffffffffffffffffffffff1614806119a157506119a084846109c9565b5b806119df57508273ffffffffffffffffffffffffffffffffffffffff166119c783610d2e565b73ffffffffffffffffffffffffffffffffffffffff16145b5b90509392505050565b600073ffffffffffffffffffffffffffffffffffffffff168273ffffffffffffffffffffffffffffffffffffffff1603611a5b5760006040517f64a0ae92000000000000000000000000000000000000000000000000000000008152600401611a529190611e5a565b60405180910390fd5b6000611a6983836000610d85565b9050600073ffffffffffffffffffffffffffffffffffffffff168173ffffffffffffffffffffffffffffffffffffffff1614611add5760006040517f73c6ac6e000000000000000000000000000000000000000000000000000000008152600401611ad49190611e5a565b60405180910390fd5b505050565b600080600090507a184f03e93ff9f4daa797ed6e38ed64bf6a1f0100000000000000008310611b40577a184f03e93ff9f4daa797ed6e38ed64bf6a1f0100000000000000008381611b3657611b356128f0565b5b0492506040810190505b6d04ee2d6d415b85acef81000000008310611b7d576d04ee2d6d415b85acef81000000008381611b7357611b726128f0565b5b0492506020810190505b662386f26fc100008310611bac57662386f26fc100008381611ba257611ba16128f0565b5b0492506010810190505b6305f5e1008310611bd5576305f5e1008381611bcb57611bca6128f0565b5b0492506008810190505b6127108310611bfa576127108381611bf057611bef6128f0565b5b0492506004810190505b60648310611c1d5760648381611c1357611c126128f0565b5b0492506002810190505b600a8310611c2c576001810190505b80915050919050565b6000604051905090565b600080fd5b600080fd5b60007fffffffff0000000000000000000000000000000000000000000000000000000082169050919050565b611c7e81611c49565b8114611c8957600080fd5b50565b600081359050611c9b81611c75565b92915050565b600060208284031215611cb757611cb6611c3f565b5b6000611cc584828501611c8c565b91505092915050565b60008115159050919050565b611ce381611cce565b82525050565b6000602082019050611cfe6000830184611cda565b92915050565b600081519050919050565b600082825260208201905092915050565b60005b83811015611d3e578082015181840152602081019050611d23565b60008484015250505050565b6000601f19601f8301169050919050565b6000611d6682611d04565b611d708185611d0f565b9350611d80818560208601611d20565b611d8981611d4a565b840191505092915050565b60006020820190508181036000830152611dae8184611d5b565b905092915050565b6000819050919050565b611dc981611db6565b8114611dd457600080fd5b50565b600081359050611de681611dc0565b92915050565b600060208284031215611e0257611e01611c3f565b5b6000611e1084828501611dd7565b91505092915050565b600073ffffffffffffffffffffffffffffffffffffffff82169050919050565b6000611e4482611e19565b9050919050565b611e5481611e39565b82525050565b6000602082019050611e6f6000830184611e4b565b92915050565b611e7e81611e39565b8114611e8957600080fd5b50565b600081359050611e9b81611e75565b92915050565b60008060408385031215611eb857611eb7611c3f565b5b6000611ec685828601611e8c565b9250506020611ed785828601611dd7565b9150509250929050565b600080600060608486031215611efa57611ef9611c3f565b5b6000611f0886828701611e8c565b9350506020611f1986828701611e8c565b9250506040611f2a86828701611dd7565b9150509250925092565b600080fd5b600080fd5b7f4e487b7100000000000000000000000000000000000000000000000000000000600052604160045260246000fd5b611f7682611d4a565b810181811067ffffffffffffffff82111715611f9557611f94611f3e565b5b80604052505050565b6000611fa8611c35565b9050611fb48282611f6d565b919050565b600067ffffffffffffffff821115611fd457611fd3611f3e565b5b611fdd82611d4a565b9050602081019050919050565b82818337600083830152505050565b600061200c61200784611fb9565b611f9e565b90508281526020810184848401111561202857612027611f39565b5b612033848285611fea565b509392505050565b600082601f8301126120505761204f611f34565b5b8135612060848260208601611ff9565b91505092915050565b600080604083850312156120805761207f611c3f565b5b600061208e85828601611e8c565b925050602083013567ffffffffffffffff8111156120af576120ae611c44565b5b6120bb8582860161203b565b9150509250929050565b6120ce81611db6565b82525050565b60006020820190506120e960008301846120c5565b92915050565b60006020828403121561210557612104611c3f565b5b600061211384828501611e8c565b91505092915050565b61212581611cce565b811461213057600080fd5b50565b6000813590506121428161211c565b92915050565b6000806040838503121561215f5761215e611c3f565b5b600061216d85828601611e8c565b925050602061217e85828601612133565b9150509250929050565b600067ffffffffffffffff8211156121a3576121a2611f3e565b5b6121ac82611d4a565b9050602081019050919050565b60006121cc6121c784612188565b611f9e565b9050828152602081018484840111156121e8576121e7611f39565b5b6121f3848285611fea565b509392505050565b600082601f8301126122105761220f611f34565b5b81356122208482602086016121b9565b91505092915050565b6000806000806080858703121561224357612242611c3f565b5b600061225187828801611e8c565b945050602061226287828801611e8c565b935050604061227387828801611dd7565b925050606085013567ffffffffffffffff81111561229457612293611c44565b5b6122a0878288016121fb565b91505092959194509250565b600080604083850312156122c3576122c2611c3f565b5b60006122d185828601611e8c565b92505060206122e285828601611e8c565b9150509250929050565b7f4e487b7100000000000000000000000000000000000000000000000000000000600052602260045260246000fd5b6000600282049050600182168061233357607f821691505b602082108103612346576123456122ec565b5b50919050565b60006060820190506123616000830186611e4b565b61236e60208301856120c5565b61237b6040830184611e4b565b949350505050565b7f4e487b7100000000000000000000000000000000000000000000000000000000600052601160045260246000fd5b60006123bd82611db6565b91507fffffffffffffffffffffffffffffffffffffffffffffffffffffffffffffffff82036123ef576123ee612383565b5b600182019050919050565b600081905092915050565b600061241082611d04565b61241a81856123fa565b935061242a818560208601611d20565b80840191505092915050565b60006124428285612405565b915061244e8284612405565b91508190509392505050565b7f5061796d656e7420726571756972656400000000000000000000000000000000600082015250565b6000612490601083611d0f565b915061249b8261245a565b602082019050919050565b600060208201905081810360008301526124bf81612483565b9050919050565b7f74785f686173685f6e6f745f617661696c61626c655f696e5f736f6c6964697460008201527f7900000000000000000000000000000000000000000000000000000000000000602082015250565b6000612522602183611d0f565b915061252d826124c6565b604082019050919050565b600060408201905061254d60008301846120c5565b818103602083015261255e81612515565b905092915050565b60008190508160005260206000209050919050565b60006020601f8301049050919050565b600082821b905092915050565b6000600883026125c87fffffffffffffffffffffffffffffffffffffffffffffffffffffffffffffffff8261258b565b6125d2868361258b565b95508019841693508086168417925050509392505050565b6000819050919050565b600061260f61260a61260584611db6565b6125ea565b611db6565b9050919050565b6000819050919050565b612629836125f4565b61263d61263582612616565b848454612598565b825550505050565b600090565b612652612645565b61265d818484612620565b505050565b5b818110156126815761267660008261264a565b600181019050612663565b5050565b601f8211156126c65761269781612566565b6126a08461257b565b810160208510156126af578190505b6126c36126bb8561257b565b830182612662565b50505b505050565b600082821c905092915050565b60006126e9600019846008026126cb565b1980831691505092915050565b600061270283836126d8565b9150826002028217905092915050565b61271b82611d04565b67ffffffffffffffff81111561273457612733611f3e565b5b61273e825461231b565b612749828285612685565b600060209050601f83116001811461277c576000841561276a578287015190505b61277485826126f6565b8655506127dc565b601f19841661278a86612566565b60005b828110156127b25784890151825560018201915060208501945060208101905061278d565b868310156127cf57848901516127cb601f8916826126d8565b8355505b6001600288020188555050505b505050505050565b600081519050919050565b600082825260208201905092915050565b600061280b826127e4565b61281581856127ef565b9350612825818560208601611d20565b61282e81611d4a565b840191505092915050565b600060808201905061284e6000830187611e4b565b61285b6020830186611e4b565b61286860408301856120c5565b818103606083015261287a8184612800565b905095945050505050565b60008151905061289481611c75565b92915050565b6000602082840312156128b0576128af611c3f565b5b60006128be84828501612885565b91505092915050565b60006040820190506128dc6000830185611e4b565b6128e960208301846120c5565b9392505050565b7f4e487b7100000000000000000000000000000000000000000000000000000000600052601260045260246000fdfea26469706673582212201ac31cc146c3eb737b18d0ba4e52495c4c9426e1352ec8e1d437f79f4b7c300164736f6c63430008140033",
  "linkReferences": {},
  "deployedLinkReferences": {}
}